{
  "_format": "hh-sol-artifact-1",
  "contractName": "MyNFT",
  "sourceName": "contracts/MyNFT.sol",
  "abi": [
    {
      "inputs": [
        {
          "internalType": "string",
          "name": "name",
          "type": "string"
        },
        {
          "internalType": "string",
          "name": "symbol",
          "type": "string"
        }
      ],
      "stateMutability": "nonpayable",
      "type": "constructor"
    },
    {
      "anonymous": false,
      "inputs": [
        {
          "indexed": true,
          "internalType": "address",
          "name": "owner",
          "type": "address"
        },
        {
          "indexed": true,
          "internalType": "address",
          "name": "approved",
          "type": "address"
        },
        {
          "indexed": true,
          "internalType": "uint256",
          "name": "tokenId",
          "type": "uint256"
        }
      ],
      "name": "Approval",
      "type": "event"
    },
    {
      "anonymous": false,
      "inputs": [
        {
          "indexed": true,
          "internalType": "address",
          "name": "owner",
          "type": "address"
        },
        {
          "indexed": true,
          "internalType": "address",
          "name": "operator",
          "type": "address"
        },
        {
          "indexed": false,
          "internalType": "bool",
          "name": "approved",
          "type": "bool"
        }
      ],
      "name": "ApprovalForAll",
      "type": "event"
    },
    {
      "anonymous": false,
      "inputs": [
        {
          "indexed": true,
          "internalType": "address",
          "name": "previousOwner",
          "type": "address"
        },
        {
          "indexed": true,
          "internalType": "address",
          "name": "newOwner",
          "type": "address"
        }
      ],
      "name": "OwnershipTransferred",
      "type": "event"
    },
    {
      "anonymous": false,
      "inputs": [
        {
          "indexed": true,
          "internalType": "address",
          "name": "from",
          "type": "address"
        },
        {
          "indexed": true,
          "internalType": "address",
          "name": "to",
          "type": "address"
        },
        {
          "indexed": true,
          "internalType": "uint256",
          "name": "tokenId",
          "type": "uint256"
        }
      ],
      "name": "Transfer",
      "type": "event"
    },
    {
      "inputs": [
        {
          "internalType": "address",
          "name": "to",
          "type": "address"
        },
        {
          "internalType": "uint256",
          "name": "tokenId",
          "type": "uint256"
        }
      ],
      "name": "approve",
      "outputs": [],
      "stateMutability": "nonpayable",
      "type": "function"
    },
    {
      "inputs": [
        {
          "internalType": "address",
          "name": "owner",
          "type": "address"
        }
      ],
      "name": "balanceOf",
      "outputs": [
        {
          "internalType": "uint256",
          "name": "",
          "type": "uint256"
        }
      ],
      "stateMutability": "view",
      "type": "function"
    },
    {
      "inputs": [
        {
          "internalType": "uint256",
          "name": "tokenId",
          "type": "uint256"
        }
      ],
      "name": "getApproved",
      "outputs": [
        {
          "internalType": "address",
          "name": "",
          "type": "address"
        }
      ],
      "stateMutability": "view",
      "type": "function"
    },
    {
      "inputs": [
        {
          "internalType": "address",
          "name": "owner",
          "type": "address"
        },
        {
          "internalType": "address",
          "name": "operator",
          "type": "address"
        }
      ],
      "name": "isApprovedForAll",
      "outputs": [
        {
          "internalType": "bool",
          "name": "",
          "type": "bool"
        }
      ],
      "stateMutability": "view",
      "type": "function"
    },
    {
      "inputs": [
        {
          "internalType": "address",
          "name": "recipient",
          "type": "address"
        },
        {
          "internalType": "string",
          "name": "tokenURI",
          "type": "string"
        }
      ],
      "name": "mintNFT",
      "outputs": [
        {
          "internalType": "uint256",
          "name": "",
          "type": "uint256"
        }
      ],
      "stateMutability": "nonpayable",
      "type": "function"
    },
    {
      "inputs": [],
      "name": "name",
      "outputs": [
        {
          "internalType": "string",
          "name": "",
          "type": "string"
        }
      ],
      "stateMutability": "view",
      "type": "function"
    },
    {
      "inputs": [],
      "name": "owner",
      "outputs": [
        {
          "internalType": "address",
          "name": "",
          "type": "address"
        }
      ],
      "stateMutability": "view",
      "type": "function"
    },
    {
      "inputs": [
        {
          "internalType": "uint256",
          "name": "tokenId",
          "type": "uint256"
        }
      ],
      "name": "ownerOf",
      "outputs": [
        {
          "internalType": "address",
          "name": "",
          "type": "address"
        }
      ],
      "stateMutability": "view",
      "type": "function"
    },
    {
      "inputs": [],
      "name": "renounceOwnership",
      "outputs": [],
      "stateMutability": "nonpayable",
      "type": "function"
    },
    {
      "inputs": [
        {
          "internalType": "address",
          "name": "from",
          "type": "address"
        },
        {
          "internalType": "address",
          "name": "to",
          "type": "address"
        },
        {
          "internalType": "uint256",
          "name": "tokenId",
          "type": "uint256"
        }
      ],
      "name": "safeTransferFrom",
      "outputs": [],
      "stateMutability": "nonpayable",
      "type": "function"
    },
    {
      "inputs": [
        {
          "internalType": "address",
          "name": "from",
          "type": "address"
        },
        {
          "internalType": "address",
          "name": "to",
          "type": "address"
        },
        {
          "internalType": "uint256",
          "name": "tokenId",
          "type": "uint256"
        },
        {
          "internalType": "bytes",
          "name": "_data",
          "type": "bytes"
        }
      ],
      "name": "safeTransferFrom",
      "outputs": [],
      "stateMutability": "nonpayable",
      "type": "function"
    },
    {
      "inputs": [
        {
          "internalType": "address",
          "name": "operator",
          "type": "address"
        },
        {
          "internalType": "bool",
          "name": "approved",
          "type": "bool"
        }
      ],
      "name": "setApprovalForAll",
      "outputs": [],
      "stateMutability": "nonpayable",
      "type": "function"
    },
    {
      "inputs": [
        {
          "internalType": "string",
          "name": "baseURI_",
          "type": "string"
        }
      ],
      "name": "setBaseURI",
      "outputs": [],
      "stateMutability": "nonpayable",
      "type": "function"
    },
    {
      "inputs": [
        {
          "internalType": "bytes4",
          "name": "interfaceId",
          "type": "bytes4"
        }
      ],
      "name": "supportsInterface",
      "outputs": [
        {
          "internalType": "bool",
          "name": "",
          "type": "bool"
        }
      ],
      "stateMutability": "view",
      "type": "function"
    },
    {
      "inputs": [],
      "name": "symbol",
      "outputs": [
        {
          "internalType": "string",
          "name": "",
          "type": "string"
        }
      ],
      "stateMutability": "view",
      "type": "function"
    },
    {
      "inputs": [
        {
          "internalType": "uint256",
          "name": "tokenId",
          "type": "uint256"
        }
      ],
      "name": "tokenURI",
      "outputs": [
        {
          "internalType": "string",
          "name": "",
          "type": "string"
        }
      ],
      "stateMutability": "view",
      "type": "function"
    },
    {
      "inputs": [
        {
          "internalType": "address",
          "name": "from",
          "type": "address"
        },
        {
          "internalType": "address",
          "name": "to",
          "type": "address"
        },
        {
          "internalType": "uint256",
          "name": "tokenId",
          "type": "uint256"
        }
      ],
      "name": "transferFrom",
      "outputs": [],
      "stateMutability": "nonpayable",
      "type": "function"
    },
    {
      "inputs": [
        {
          "internalType": "address",
          "name": "newOwner",
          "type": "address"
        }
      ],
      "name": "transferOwnership",
      "outputs": [],
      "stateMutability": "nonpayable",
      "type": "function"
    }
  ],
  "bytecode": "0x60806040523480156200001157600080fd5b5060405162001ce038038062001ce083398101604081905262000034916200022f565b8151829082906200004d906000906020850190620000de565b50805162000063906001906020840190620000de565b505050620000806200007a6200008860201b60201c565b6200008c565b5050620002e9565b3390565b600680546001600160a01b038381166001600160a01b0319831681179093556040519116919082907f8be0079c531659141344cd1fd0a4f28419497f9722a3daafe3b4186f6b6457e090600090a35050565b828054620000ec9062000296565b90600052602060002090601f0160209004810192826200011057600085556200015b565b82601f106200012b57805160ff19168380011785556200015b565b828001600101855582156200015b579182015b828111156200015b5782518255916020019190600101906200013e565b50620001699291506200016d565b5090565b5b808211156200016957600081556001016200016e565b600082601f83011262000195578081fd5b81516001600160401b0380821115620001b257620001b2620002d3565b6040516020601f8401601f1916820181018381118382101715620001da57620001da620002d3565b6040528382528584018101871015620001f1578485fd5b8492505b83831015620002145785830181015182840182015291820191620001f5565b838311156200022557848185840101525b5095945050505050565b6000806040838503121562000242578182fd5b82516001600160401b038082111562000259578384fd5b620002678683870162000184565b935060208501519150808211156200027d578283fd5b506200028c8582860162000184565b9150509250929050565b600281046001821680620002ab57607f821691505b60208210811415620002cd57634e487b7160e01b600052602260045260246000fd5b50919050565b634e487b7160e01b600052604160045260246000fd5b6119e780620002f96000396000f3fe608060405234801561001057600080fd5b50600436106101165760003560e01c8063715018a6116100a2578063b88d4fde11610071578063b88d4fde14610225578063c87b56dd14610238578063e985e9c51461024b578063eacabe141461025e578063f2fde38b1461027157610116565b8063715018a6146101fa5780638da5cb5b1461020257806395d89b411461020a578063a22cb4651461021257610116565b806323b872dd116100e957806323b872dd1461018e57806342842e0e146101a157806355f804b3146101b45780636352211e146101c757806370a08231146101da57610116565b806301ffc9a71461011b57806306fdde0314610144578063081812fc14610159578063095ea7b314610179575b600080fd5b61012e610129366004611278565b610284565b60405161013b91906113a7565b60405180910390f35b61014c6102cc565b60405161013b91906113b2565b61016c6101673660046112e3565b61035e565b60405161013b9190611356565b61018c61018736600461124f565b6103aa565b005b61018c61019c366004611115565b610442565b61018c6101af366004611115565b61047a565b61018c6101c23660046112b0565b610495565b61016c6101d53660046112e3565b6104eb565b6101ed6101e83660046110c9565b610520565b60405161013b9190611877565b61018c610564565b61016c6105af565b61014c6105be565b61018c6102203660046111c9565b6105cd565b61018c610233366004611150565b61069b565b61014c6102463660046112e3565b6106da565b61012e6102593660046110e3565b61081d565b6101ed61026c366004611203565b61084b565b61018c61027f3660046110c9565b6108bf565b60006001600160e01b031982166380ac58cd60e01b14806102b557506001600160e01b03198216635b5e139f60e01b145b806102c457506102c482610930565b90505b919050565b6060600080546102db906118ef565b80601f0160208091040260200160405190810160405280929190818152602001828054610307906118ef565b80156103545780601f1061032957610100808354040283529160200191610354565b820191906000526020600020905b81548152906001019060200180831161033757829003601f168201915b5050505050905090565b600061036982610949565b61038e5760405162461bcd60e51b815260040161038590611680565b60405180910390fd5b506000908152600460205260409020546001600160a01b031690565b60006103b5826104eb565b9050806001600160a01b0316836001600160a01b031614156103e95760405162461bcd60e51b8152600401610385906117e5565b806001600160a01b03166103fb610966565b6001600160a01b03161480610417575061041781610259610966565b6104335760405162461bcd60e51b81526004016103859061155b565b61043d838361096a565b505050565b61045361044d610966565b826109d8565b61046f5760405162461bcd60e51b815260040161038590611826565b61043d838383610a5d565b61043d8383836040518060200160405280600081525061069b565b61049d610966565b6001600160a01b03166104ae6105af565b6001600160a01b0316146104d45760405162461bcd60e51b815260040161038590611718565b80516104e7906009906020840190610f8a565b5050565b6000818152600260205260408120546001600160a01b0316806102c45760405162461bcd60e51b815260040161038590611602565b60006001600160a01b0382166105485760405162461bcd60e51b8152600401610385906115b8565b506001600160a01b031660009081526003602052604090205490565b61056c610966565b6001600160a01b031661057d6105af565b6001600160a01b0316146105a35760405162461bcd60e51b815260040161038590611718565b6105ad6000610b8a565b565b6006546001600160a01b031690565b6060600180546102db906118ef565b6105d5610966565b6001600160a01b0316826001600160a01b031614156106065760405162461bcd60e51b8152600401610385906114d8565b8060056000610613610966565b6001600160a01b03908116825260208083019390935260409182016000908120918716808252919093529120805460ff191692151592909217909155610657610966565b6001600160a01b03167f17307eab39ab6107e8899845ad3d59bd9653f200f220920489ca2b5937696c318360405161068f91906113a7565b60405180910390a35050565b6106ac6106a6610966565b836109d8565b6106c85760405162461bcd60e51b815260040161038590611826565b6106d484848484610bdc565b50505050565b60606106e582610949565b6107015760405162461bcd60e51b815260040161038590611796565b6000828152600860205260408120805461071a906118ef565b80601f0160208091040260200160405190810160405280929190818152602001828054610746906118ef565b80156107935780601f1061076857610100808354040283529160200191610793565b820191906000526020600020905b81548152906001019060200180831161077657829003601f168201915b5050505050905060006107a4610c0f565b90508051600014156107b8575090506102c7565b8151156107ea5780826040516020016107d2929190611327565b604051602081830303815290604052925050506102c7565b806107f485610c1e565b604051602001610805929190611327565b60405160208183030381529060405292505050919050565b6001600160a01b03918216600090815260056020908152604080832093909416825291909152205460ff1690565b6000610855610966565b6001600160a01b03166108666105af565b6001600160a01b03161461088c5760405162461bcd60e51b815260040161038590611718565b6108966007610d39565b60006108a26007610d42565b90506108ae8482610d46565b6108b88184610e25565b9392505050565b6108c7610966565b6001600160a01b03166108d86105af565b6001600160a01b0316146108fe5760405162461bcd60e51b815260040161038590611718565b6001600160a01b0381166109245760405162461bcd60e51b815260040161038590611417565b61092d81610b8a565b50565b6001600160e01b031981166301ffc9a760e01b14919050565b6000908152600260205260409020546001600160a01b0316151590565b3390565b600081815260046020526040902080546001600160a01b0319166001600160a01b038416908117909155819061099f826104eb565b6001600160a01b03167f8c5be1e5ebec7d5bd14f71427d1e84f3dd0314c0f7b2291e5b200ac8c7c3b92560405160405180910390a45050565b60006109e382610949565b6109ff5760405162461bcd60e51b81526004016103859061150f565b6000610a0a836104eb565b9050806001600160a01b0316846001600160a01b03161480610a455750836001600160a01b0316610a3a8461035e565b6001600160a01b0316145b80610a555750610a55818561081d565b949350505050565b826001600160a01b0316610a70826104eb565b6001600160a01b031614610a965760405162461bcd60e51b81526004016103859061174d565b6001600160a01b038216610abc5760405162461bcd60e51b815260040161038590611494565b610ac783838361043d565b610ad260008261096a565b6001600160a01b0383166000908152600360205260408120805460019290610afb9084906118ac565b90915550506001600160a01b0382166000908152600360205260408120805460019290610b29908490611880565b909155505060008181526002602052604080822080546001600160a01b0319166001600160a01b0386811691821790925591518493918716917fddf252ad1be2c89b69c2b068fc378daa952ba7f163c4a11628f55a4df523b3ef91a4505050565b600680546001600160a01b038381166001600160a01b0319831681179093556040519116919082907f8be0079c531659141344cd1fd0a4f28419497f9722a3daafe3b4186f6b6457e090600090a35050565b610be7848484610a5d565b610bf384848484610e69565b6106d45760405162461bcd60e51b8152600401610385906113c5565b6060600980546102db906118ef565b606081610c4357506040805180820190915260018152600360fc1b60208201526102c7565b8160005b8115610c6d5780610c578161192a565b9150610c669050600a83611898565b9150610c47565b60008167ffffffffffffffff811115610c9657634e487b7160e01b600052604160045260246000fd5b6040519080825280601f01601f191660200182016040528015610cc0576020820181803683370190505b5090505b8415610a5557610cd56001836118ac565b9150610ce2600a86611945565b610ced906030611880565b60f81b818381518110610d1057634e487b7160e01b600052603260045260246000fd5b60200101906001600160f81b031916908160001a905350610d32600a86611898565b9450610cc4565b80546001019055565b5490565b6001600160a01b038216610d6c5760405162461bcd60e51b81526004016103859061164b565b610d7581610949565b15610d925760405162461bcd60e51b81526004016103859061145d565b610d9e6000838361043d565b6001600160a01b0382166000908152600360205260408120805460019290610dc7908490611880565b909155505060008181526002602052604080822080546001600160a01b0319166001600160a01b03861690811790915590518392907fddf252ad1be2c89b69c2b068fc378daa952ba7f163c4a11628f55a4df523b3ef908290a45050565b610e2e82610949565b610e4a5760405162461bcd60e51b8152600401610385906116cc565b6000828152600860209081526040909120825161043d92840190610f8a565b6000610e7d846001600160a01b0316610f84565b15610f7957836001600160a01b031663150b7a02610e99610966565b8786866040518563ffffffff1660e01b8152600401610ebb949392919061136a565b602060405180830381600087803b158015610ed557600080fd5b505af1925050508015610f05575060408051601f3d908101601f19168201909252610f0291810190611294565b60015b610f5f573d808015610f33576040519150601f19603f3d011682016040523d82523d6000602084013e610f38565b606091505b508051610f575760405162461bcd60e51b8152600401610385906113c5565b805181602001fd5b6001600160e01b031916630a85bd0160e11b149050610a55565b506001949350505050565b3b151590565b828054610f96906118ef565b90600052602060002090601f016020900481019282610fb85760008555610ffe565b82601f10610fd157805160ff1916838001178555610ffe565b82800160010185558215610ffe579182015b82811115610ffe578251825591602001919060010190610fe3565b5061100a92915061100e565b5090565b5b8082111561100a576000815560010161100f565b600067ffffffffffffffff8084111561103e5761103e611985565b604051601f8501601f19168101602001828111828210171561106257611062611985565b60405284815291508183850186101561107a57600080fd5b8484602083013760006020868301015250509392505050565b80356001600160a01b03811681146102c757600080fd5b600082601f8301126110ba578081fd5b6108b883833560208501611023565b6000602082840312156110da578081fd5b6108b882611093565b600080604083850312156110f5578081fd5b6110fe83611093565b915061110c60208401611093565b90509250929050565b600080600060608486031215611129578081fd5b61113284611093565b925061114060208501611093565b9150604084013590509250925092565b60008060008060808587031215611165578081fd5b61116e85611093565b935061117c60208601611093565b925060408501359150606085013567ffffffffffffffff81111561119e578182fd5b8501601f810187136111ae578182fd5b6111bd87823560208401611023565b91505092959194509250565b600080604083850312156111db578182fd5b6111e483611093565b9150602083013580151581146111f8578182fd5b809150509250929050565b60008060408385031215611215578182fd5b61121e83611093565b9150602083013567ffffffffffffffff811115611239578182fd5b611245858286016110aa565b9150509250929050565b60008060408385031215611261578182fd5b61126a83611093565b946020939093013593505050565b600060208284031215611289578081fd5b81356108b88161199b565b6000602082840312156112a5578081fd5b81516108b88161199b565b6000602082840312156112c1578081fd5b813567ffffffffffffffff8111156112d7578182fd5b610a55848285016110aa565b6000602082840312156112f4578081fd5b5035919050565b600081518084526113138160208601602086016118c3565b601f01601f19169290920160200192915050565b600083516113398184602088016118c3565b83519083019061134d8183602088016118c3565b01949350505050565b6001600160a01b0391909116815260200190565b6001600160a01b038581168252841660208201526040810183905260806060820181905260009061139d908301846112fb565b9695505050505050565b901515815260200190565b6000602082526108b860208301846112fb565b60208082526032908201527f4552433732313a207472616e7366657220746f206e6f6e20455243373231526560408201527131b2b4bb32b91034b6b83632b6b2b73a32b960711b606082015260800190565b60208082526026908201527f4f776e61626c653a206e6577206f776e657220697320746865207a65726f206160408201526564647265737360d01b606082015260800190565b6020808252601c908201527f4552433732313a20746f6b656e20616c7265616479206d696e74656400000000604082015260600190565b60208082526024908201527f4552433732313a207472616e7366657220746f20746865207a65726f206164646040820152637265737360e01b606082015260800190565b60208082526019908201527f4552433732313a20617070726f766520746f2063616c6c657200000000000000604082015260600190565b6020808252602c908201527f4552433732313a206f70657261746f7220717565727920666f72206e6f6e657860408201526b34b9ba32b73a103a37b5b2b760a11b606082015260800190565b60208082526038908201527f4552433732313a20617070726f76652063616c6c6572206973206e6f74206f7760408201527f6e6572206e6f7220617070726f76656420666f7220616c6c0000000000000000606082015260800190565b6020808252602a908201527f4552433732313a2062616c616e636520717565727920666f7220746865207a65604082015269726f206164647265737360b01b606082015260800190565b60208082526029908201527f4552433732313a206f776e657220717565727920666f72206e6f6e657869737460408201526832b73a103a37b5b2b760b91b606082015260800190565b6020808252818101527f4552433732313a206d696e7420746f20746865207a65726f2061646472657373604082015260600190565b6020808252602c908201527f4552433732313a20617070726f76656420717565727920666f72206e6f6e657860408201526b34b9ba32b73a103a37b5b2b760a11b606082015260800190565b6020808252602c908201527f4552433732314d657461646174613a2055524920736574206f66206e6f6e657860408201526b34b9ba32b73a103a37b5b2b760a11b606082015260800190565b6020808252818101527f4f776e61626c653a2063616c6c6572206973206e6f7420746865206f776e6572604082015260600190565b60208082526029908201527f4552433732313a207472616e73666572206f6620746f6b656e2074686174206960408201526839903737ba1037bbb760b91b606082015260800190565b6020808252602f908201527f4552433732314d657461646174613a2055524920717565727920666f72206e6f60408201526e3732bc34b9ba32b73a103a37b5b2b760891b606082015260800190565b60208082526021908201527f4552433732313a20617070726f76616c20746f2063757272656e74206f776e656040820152603960f91b606082015260800190565b60208082526031908201527f4552433732313a207472616e736665722063616c6c6572206973206e6f74206f6040820152701ddb995c881b9bdc88185c1c1c9bdd9959607a1b606082015260800190565b90815260200190565b6000821982111561189357611893611959565b500190565b6000826118a7576118a761196f565b500490565b6000828210156118be576118be611959565b500390565b60005b838110156118de5781810151838201526020016118c6565b838111156106d45750506000910152565b60028104600182168061190357607f821691505b6020821081141561192457634e487b7160e01b600052602260045260246000fd5b50919050565b600060001982141561193e5761193e611959565b5060010190565b6000826119545761195461196f565b500690565b634e487b7160e01b600052601160045260246000fd5b634e487b7160e01b600052601260045260246000fd5b634e487b7160e01b600052604160045260246000fd5b6001600160e01b03198116811461092d57600080fdfea2646970667358221220274e62946a9b8857710b2dac089f3986b2856edb741f3d8ade99ca2c1e7e69c464736f6c63430008000033",
  "linkReferences": {},
  "deployedLinkReferences": {}
}